{
  "contractName": "Certify",
  "abi": [
    {
      "constant": false,
      "inputs": [
        {
          "name": "candidateId",
          "type": "string"
        },
        {
          "name": "_registrationNumber",
          "type": "string"
        },
        {
          "name": "_schoolName",
          "type": "string"
        },
        {
          "name": "_batch",
          "type": "string"
        },
        {
          "name": "_cgpa",
          "type": "string"
        },
        {
          "name": "_region",
          "type": "string"
        },
        {
          "name": "_board",
          "type": "string"
        },
        {
          "name": "_status",
          "type": "string"
        }
      ],
      "name": "setTethDetails",
      "outputs": [],
      "payable": false,
      "stateMutability": "nonpayable",
      "type": "function"
    },
    {
      "constant": false,
      "inputs": [
        {
          "name": "candidateId",
          "type": "string"
        }
      ],
      "name": "getTethDetails",
      "outputs": [
        {
          "name": "_registrationNumber",
          "type": "string"
        },
        {
          "name": "_schoolName",
          "type": "string"
        },
        {
          "name": "_batch",
          "type": "string"
        },
        {
          "name": "_cgpa",
          "type": "string"
        },
        {
          "name": "_region",
          "type": "string"
        },
        {
          "name": "_board",
          "type": "string"
        },
        {
          "name": "_status",
          "type": "string"
        }
      ],
      "payable": false,
      "stateMutability": "nonpayable",
      "type": "function"
    },
    {
      "constant": false,
      "inputs": [
        {
          "name": "candidateId",
          "type": "string"
        },
        {
          "name": "_registrationNumber",
          "type": "string"
        },
        {
          "name": "_schoolName",
          "type": "string"
        },
        {
          "name": "_batch",
          "type": "string"
        },
        {
          "name": "_cgpa",
          "type": "string"
        },
        {
          "name": "_region",
          "type": "string"
        },
        {
          "name": "_board",
          "type": "string"
        },
        {
          "name": "_status",
          "type": "string"
        }
      ],
      "name": "setTwelvethDetails",
      "outputs": [],
      "payable": false,
      "stateMutability": "nonpayable",
      "type": "function"
    },
    {
      "constant": false,
      "inputs": [
        {
          "name": "candidateId",
          "type": "string"
        }
      ],
      "name": "getTwelvethDetails",
      "outputs": [
        {
          "name": "_registrationNumber",
          "type": "string"
        },
        {
          "name": "_schoolName",
          "type": "string"
        },
        {
          "name": "_batch",
          "type": "string"
        },
        {
          "name": "_cgpa",
          "type": "string"
        },
        {
          "name": "_region",
          "type": "string"
        },
        {
          "name": "_board",
          "type": "string"
        },
        {
          "name": "_status",
          "type": "string"
        }
      ],
      "payable": false,
      "stateMutability": "nonpayable",
      "type": "function"
    },
    {
      "constant": false,
      "inputs": [
        {
          "name": "candidateId",
          "type": "string"
        },
        {
          "name": "_registrationNumber",
          "type": "string"
        },
        {
          "name": "_college",
          "type": "string"
        },
        {
          "name": "_university",
          "type": "string"
        },
        {
          "name": "_batch",
          "type": "string"
        },
        {
          "name": "_cgpa",
          "type": "string"
        },
        {
          "name": "_status",
          "type": "string"
        },
        {
          "name": "_degree",
          "type": "string"
        }
      ],
      "name": "setDegreeDetails",
      "outputs": [],
      "payable": false,
      "stateMutability": "nonpayable",
      "type": "function"
    },
    {
      "constant": false,
      "inputs": [
        {
          "name": "candidateId",
          "type": "string"
        }
      ],
      "name": "getDegreeDetails",
      "outputs": [
        {
          "name": "_registrationNumber",
          "type": "string"
        },
        {
          "name": "_college",
          "type": "string"
        },
        {
          "name": "_university",
          "type": "string"
        },
        {
          "name": "_batch",
          "type": "string"
        },
        {
          "name": "_cgpa",
          "type": "string"
        },
        {
          "name": "_status",
          "type": "string"
        },
        {
          "name": "_degree",
          "type": "string"
        }
      ],
      "payable": false,
      "stateMutability": "nonpayable",
      "type": "function"
    },
    {
      "constant": false,
      "inputs": [
        {
          "name": "applicantId",
          "type": "string"
        },
        {
          "name": "_X",
          "type": "string"
        },
        {
          "name": "_XII",
          "type": "string"
        },
        {
          "name": "_graduation",
          "type": "string"
        },
        {
          "name": "_postGraduation",
          "type": "string"
        },
        {
          "name": "_phd",
          "type": "string"
        }
      ],
      "name": "setEducationalDetails",
      "outputs": [],
      "payable": false,
      "stateMutability": "nonpayable",
      "type": "function"
    },
    {
      "constant": false,
      "inputs": [
        {
          "name": "applicantId",
          "type": "string"
        }
      ],
      "name": "getEducationalDetails",
      "outputs": [
        {
          "name": "_X",
          "type": "string"
        },
        {
          "name": "_XII",
          "type": "string"
        },
        {
          "name": "_graduation",
          "type": "string"
        },
        {
          "name": "_postGraduation",
          "type": "string"
        },
        {
          "name": "_phd",
          "type": "string"
        }
      ],
      "payable": false,
      "stateMutability": "nonpayable",
      "type": "function"
    },
    {
      "constant": false,
      "inputs": [
        {
          "name": "applicantId",
          "type": "string"
        },
        {
          "name": "_previousEmployer",
          "type": "string"
        },
        {
          "name": "_fromDate",
          "type": "string"
        },
        {
          "name": "_toDate",
          "type": "string"
        },
        {
          "name": "_ctc",
          "type": "string"
        },
        {
          "name": "_tenure",
          "type": "string"
        },
        {
          "name": "_certificate",
          "type": "string"
        }
      ],
      "name": "setApplicantEmployment",
      "outputs": [],
      "payable": false,
      "stateMutability": "nonpayable",
      "type": "function"
    },
    {
      "constant": false,
      "inputs": [
        {
          "name": "applicantId",
          "type": "string"
        },
        {
          "name": "Employeeid",
          "type": "string"
        }
      ],
      "name": "getApplicantEmplyement",
      "outputs": [
        {
          "name": "_previousEmployer",
          "type": "string"
        },
        {
          "name": "_fromDate",
          "type": "string"
        },
        {
          "name": "_toDate",
          "type": "string"
        },
        {
          "name": "_ctc",
          "type": "string"
        },
        {
          "name": "_tenure",
          "type": "string"
        },
        {
          "name": "_certificate",
          "type": "string"
        }
      ],
      "payable": false,
      "stateMutability": "nonpayable",
      "type": "function"
    }
  ],
  "bytecode": "0x608060405234801561001057600080fd5b506151c4806100206000396000f3006080604052600436106100a4576000357c0100000000000000000000000000000000000000000000000000000000900463ffffffff16806302957647146100a95780632d0d44fa146102b657806369c8242c1461047d57806376559213146106d05780638400292014610a3a5780638dd3b7f014610c8d578063af48605814610ff7578063c69d12661461133b578063de37825d146116a5578063df2468d7146118f8575b600080fd5b3480156100b557600080fd5b506102b4600480360381019080803590602001908201803590602001908080601f0160208091040260200160405190810160405280939291908181526020018383808284378201915050505050509192919290803590602001908201803590602001908080601f0160208091040260200160405190810160405280939291908181526020018383808284378201915050505050509192919290803590602001908201803590602001908080601f0160208091040260200160405190810160405280939291908181526020018383808284378201915050505050509192919290803590602001908201803590602001908080601f0160208091040260200160405190810160405280939291908181526020018383808284378201915050505050509192919290803590602001908201803590602001908080601f0160208091040260200160405190810160405280939291908181526020018383808284378201915050505050509192919290803590602001908201803590602001908080601f0160208091040260200160405190810160405280939291908181526020018383808284378201915050505050509192919290803590602001908201803590602001908080601f0160208091040260200160405190810160405280939291908181526020018383808284378201915050505050509192919290505050611b8a565b005b3480156102c257600080fd5b5061047b600480360381019080803590602001908201803590602001908080601f0160208091040260200160405190810160405280939291908181526020018383808284378201915050505050509192919290803590602001908201803590602001908080601f0160208091040260200160405190810160405280939291908181526020018383808284378201915050505050509192919290803590602001908201803590602001908080601f0160208091040260200160405190810160405280939291908181526020018383808284378201915050505050509192919290803590602001908201803590602001908080601f0160208091040260200160405190810160405280939291908181526020018383808284378201915050505050509192919290803590602001908201803590602001908080601f0160208091040260200160405190810160405280939291908181526020018383808284378201915050505050509192919290803590602001908201803590602001908080601f0160208091040260200160405190810160405280939291908181526020018383808284378201915050505050509192919290505050611db6565b005b34801561048957600080fd5b506106ce600480360381019080803590602001908201803590602001908080601f0160208091040260200160405190810160405280939291908181526020018383808284378201915050505050509192919290803590602001908201803590602001908080601f0160208091040260200160405190810160405280939291908181526020018383808284378201915050505050509192919290803590602001908201803590602001908080601f0160208091040260200160405190810160405280939291908181526020018383808284378201915050505050509192919290803590602001908201803590602001908080601f0160208091040260200160405190810160405280939291908181526020018383808284378201915050505050509192919290803590602001908201803590602001908080601f0160208091040260200160405190810160405280939291908181526020018383808284378201915050505050509192919290803590602001908201803590602001908080601f0160208091040260200160405190810160405280939291908181526020018383808284378201915050505050509192919290803590602001908201803590602001908080601f0160208091040260200160405190810160405280939291908181526020018383808284378201915050505050509192919290803590602001908201803590602001908080601f016020809104026020016040519081016040528093929190818152602001838380828437820191505050505050919291929050505061204d565b005b3480156106dc57600080fd5b50610737600480360381019080803590602001908201803590602001908080601f01602080910402602001604051908101604052809392919081815260200183838082843782019150505050505091929192905050506123ec565b604051808060200180602001806020018060200180602001806020018060200188810388528f818151815260200191508051906020019080838360005b8381101561078f578082015181840152602081019050610774565b50505050905090810190601f1680156107bc5780820380516001836020036101000a031916815260200191505b5088810387528e818151815260200191508051906020019080838360005b838110156107f55780820151818401526020810190506107da565b50505050905090810190601f1680156108225780820380516001836020036101000a031916815260200191505b5088810386528d818151815260200191508051906020019080838360005b8381101561085b578082015181840152602081019050610840565b50505050905090810190601f1680156108885780820380516001836020036101000a031916815260200191505b5088810385528c818151815260200191508051906020019080838360005b838110156108c15780820151818401526020810190506108a6565b50505050905090810190601f1680156108ee5780820380516001836020036101000a031916815260200191505b5088810384528b818151815260200191508051906020019080838360005b8381101561092757808201518184015260208101905061090c565b50505050905090810190601f1680156109545780820380516001836020036101000a031916815260200191505b5088810383528a818151815260200191508051906020019080838360005b8381101561098d578082015181840152602081019050610972565b50505050905090810190601f1680156109ba5780820380516001836020036101000a031916815260200191505b50888103825289818151815260200191508051906020019080838360005b838110156109f35780820151818401526020810190506109d8565b50505050905090810190601f168015610a205780820380516001836020036101000a031916815260200191505b509e50505050505050505050505050505060405180910390f35b348015610a4657600080fd5b50610c8b600480360381019080803590602001908201803590602001908080601f0160208091040260200160405190810160405280939291908181526020018383808284378201915050505050509192919290803590602001908201803590602001908080601f0160208091040260200160405190810160405280939291908181526020018383808284378201915050505050509192919290803590602001908201803590602001908080601f0160208091040260200160405190810160405280939291908181526020018383808284378201915050505050509192919290803590602001908201803590602001908080601f0160208091040260200160405190810160405280939291908181526020018383808284378201915050505050509192919290803590602001908201803590602001908080601f0160208091040260200160405190810160405280939291908181526020018383808284378201915050505050509192919290803590602001908201803590602001908080601f0160208091040260200160405190810160405280939291908181526020018383808284378201915050505050509192919290803590602001908201803590602001908080601f0160208091040260200160405190810160405280939291908181526020018383808284378201915050505050509192919290803590602001908201803590602001908080601f0160208091040260200160405190810160405280939291908181526020018383808284378201915050505050509192919290505050612b56565b005b348015610c9957600080fd5b50610cf4600480360381019080803590602001908201803590602001908080601f0160208091040260200160405190810160405280939291908181526020018383808284378201915050505050509192919290505050612ef5565b604051808060200180602001806020018060200180602001806020018060200188810388528f818151815260200191508051906020019080838360005b83811015610d4c578082015181840152602081019050610d31565b50505050905090810190601f168015610d795780820380516001836020036101000a031916815260200191505b5088810387528e818151815260200191508051906020019080838360005b83811015610db2578082015181840152602081019050610d97565b50505050905090810190601f168015610ddf5780820380516001836020036101000a031916815260200191505b5088810386528d818151815260200191508051906020019080838360005b83811015610e18578082015181840152602081019050610dfd565b50505050905090810190601f168015610e455780820380516001836020036101000a031916815260200191505b5088810385528c818151815260200191508051906020019080838360005b83811015610e7e578082015181840152602081019050610e63565b50505050905090810190601f168015610eab5780820380516001836020036101000a031916815260200191505b5088810384528b818151815260200191508051906020019080838360005b83811015610ee4578082015181840152602081019050610ec9565b50505050905090810190601f168015610f115780820380516001836020036101000a031916815260200191505b5088810383528a818151815260200191508051906020019080838360005b83811015610f4a578082015181840152602081019050610f2f565b50505050905090810190601f168015610f775780820380516001836020036101000a031916815260200191505b50888103825289818151815260200191508051906020019080838360005b83811015610fb0578082015181840152602081019050610f95565b50505050905090810190601f168015610fdd5780820380516001836020036101000a031916815260200191505b509e50505050505050505050505050505060405180910390f35b34801561100357600080fd5b506110a4600480360381019080803590602001908201803590602001908080601f0160208091040260200160405190810160405280939291908181526020018383808284378201915050505050509192919290803590602001908201803590602001908080601f016020809104026020016040519081016040528093929190818152602001838380828437820191505050505050919291929050505061365f565b6040518080602001806020018060200180602001806020018060200187810387528d818151815260200191508051906020019080838360005b838110156110f85780820151818401526020810190506110dd565b50505050905090810190601f1680156111255780820380516001836020036101000a031916815260200191505b5087810386528c818151815260200191508051906020019080838360005b8381101561115e578082015181840152602081019050611143565b50505050905090810190601f16801561118b5780820380516001836020036101000a031916815260200191505b5087810385528b818151815260200191508051906020019080838360005b838110156111c45780820151818401526020810190506111a9565b50505050905090810190601f1680156111f15780820380516001836020036101000a031916815260200191505b5087810384528a818151815260200191508051906020019080838360005b8381101561122a57808201518184015260208101905061120f565b50505050905090810190601f1680156112575780820380516001836020036101000a031916815260200191505b50878103835289818151815260200191508051906020019080838360005b83811015611290578082015181840152602081019050611275565b50505050905090810190601f1680156112bd5780820380516001836020036101000a031916815260200191505b50878103825288818151815260200191508051906020019080838360005b838110156112f65780820151818401526020810190506112db565b50505050905090810190601f1680156113235780820380516001836020036101000a031916815260200191505b509c5050505050505050505050505060405180910390f35b34801561134757600080fd5b506113a2600480360381019080803590602001908201803590602001908080601f0160208091040260200160405190810160405280939291908181526020018383808284378201915050505050509192919290505050614016565b604051808060200180602001806020018060200180602001806020018060200188810388528f818151815260200191508051906020019080838360005b838110156113fa5780820151818401526020810190506113df565b50505050905090810190601f1680156114275780820380516001836020036101000a031916815260200191505b5088810387528e818151815260200191508051906020019080838360005b83811015611460578082015181840152602081019050611445565b50505050905090810190601f16801561148d5780820380516001836020036101000a031916815260200191505b5088810386528d818151815260200191508051906020019080838360005b838110156114c65780820151818401526020810190506114ab565b50505050905090810190601f1680156114f35780820380516001836020036101000a031916815260200191505b5088810385528c818151815260200191508051906020019080838360005b8381101561152c578082015181840152602081019050611511565b50505050905090810190601f1680156115595780820380516001836020036101000a031916815260200191505b5088810384528b818151815260200191508051906020019080838360005b83811015611592578082015181840152602081019050611577565b50505050905090810190601f1680156115bf5780820380516001836020036101000a031916815260200191505b5088810383528a818151815260200191508051906020019080838360005b838110156115f85780820151818401526020810190506115dd565b50505050905090810190601f1680156116255780820380516001836020036101000a031916815260200191505b50888103825289818151815260200191508051906020019080838360005b8381101561165e578082015181840152602081019050611643565b50505050905090810190601f16801561168b5780820380516001836020036101000a031916815260200191505b509e50505050505050505050505050505060405180910390f35b3480156116b157600080fd5b506118f6600480360381019080803590602001908201803590602001908080601f0160208091040260200160405190810160405280939291908181526020018383808284378201915050505050509192919290803590602001908201803590602001908080601f0160208091040260200160405190810160405280939291908181526020018383808284378201915050505050509192919290803590602001908201803590602001908080601f0160208091040260200160405190810160405280939291908181526020018383808284378201915050505050509192919290803590602001908201803590602001908080601f0160208091040260200160405190810160405280939291908181526020018383808284378201915050505050509192919290803590602001908201803590602001908080601f0160208091040260200160405190810160405280939291908181526020018383808284378201915050505050509192919290803590602001908201803590602001908080601f0160208091040260200160405190810160405280939291908181526020018383808284378201915050505050509192919290803590602001908201803590602001908080601f0160208091040260200160405190810160405280939291908181526020018383808284378201915050505050509192919290803590602001908201803590602001908080601f0160208091040260200160405190810160405280939291908181526020018383808284378201915050505050509192919290505050614780565b005b34801561190457600080fd5b5061195f600480360381019080803590602001908201803590602001908080601f0160208091040260200160405190810160405280939291908181526020018383808284378201915050505050509192919290505050614b1f565b60405180806020018060200180602001806020018060200186810386528b818151815260200191508051906020019080838360005b838110156119af578082015181840152602081019050611994565b50505050905090810190601f1680156119dc5780820380516001836020036101000a031916815260200191505b5086810385528a818151815260200191508051906020019080838360005b83811015611a155780820151818401526020810190506119fa565b50505050905090810190601f168015611a425780820380516001836020036101000a031916815260200191505b50868103845289818151815260200191508051906020019080838360005b83811015611a7b578082015181840152602081019050611a60565b50505050905090810190601f168015611aa85780820380516001836020036101000a031916815260200191505b50868103835288818151815260200191508051906020019080838360005b83811015611ae1578082015181840152602081019050611ac6565b50505050905090810190601f168015611b0e5780820380516001836020036101000a031916815260200191505b50868103825287818151815260200191508051906020019080838360005b83811015611b47578082015181840152602081019050611b2c565b50505050905090810190601f168015611b745780820380516001836020036101000a031916815260200191505b509a505050505050505050505060405180910390f35b600086816000019080519060200190611ba492919061506c565b5085816001019080519060200190611bbd92919061506c565b5084816002019080519060200190611bd692919061506c565b5081816005019080519060200190611bef92919061506c565b5083816003019080519060200190611c0892919061506c565b5082816004019080519060200190611c2192919061506c565b506001886040518082805190602001908083835b602083101515611c5a5780518252602082019150602081019050602083039250611c35565b6001836020036101000a0380198251168184511680821785525050505050509050019150509081526020016040518091039020819080600181540180825580915050906001820390600052602060002090600602016000909192909190915060008201816000019080546001816001161561010002031660029004611ce09291906150ec565b5060018201816001019080546001816001161561010002031660029004611d089291906150ec565b5060028201816002019080546001816001161561010002031660029004611d309291906150ec565b5060038201816003019080546001816001161561010002031660029004611d589291906150ec565b5060048201816004019080546001816001161561010002031660029004611d809291906150ec565b5060058201816005019080546001816001161561010002031660029004611da89291906150ec565b505050505050505050505050565b846000876040518082805190602001908083835b602083101515611def5780518252602082019150602081019050602083039250611dca565b6001836020036101000a03801982511681845116808217855250505050505090500191505090815260200160405180910390206000019080519060200190611e3892919061506c565b50836000876040518082805190602001908083835b602083101515611e725780518252602082019150602081019050602083039250611e4d565b6001836020036101000a03801982511681845116808217855250505050505090500191505090815260200160405180910390206001019080519060200190611ebb92919061506c565b50826000876040518082805190602001908083835b602083101515611ef55780518252602082019150602081019050602083039250611ed0565b6001836020036101000a03801982511681845116808217855250505050505090500191505090815260200160405180910390206002019080519060200190611f3e92919061506c565b50816000876040518082805190602001908083835b602083101515611f785780518252602082019150602081019050602083039250611f53565b6001836020036101000a03801982511681845116808217855250505050505090500191505090815260200160405180910390206003019080519060200190611fc192919061506c565b50806000876040518082805190602001908083835b602083101515611ffb5780518252602082019150602081019050602083039250611fd6565b6001836020036101000a0380198251168184511680821785525050505050509050019150509081526020016040518091039020600401908051906020019061204492919061506c565b50505050505050565b866003896040518082805190602001908083835b6020831015156120865780518252602082019150602081019050602083039250612061565b6001836020036101000a038019825116818451168082178552505050505050905001915050908152602001604051809103902060000190805190602001906120cf92919061506c565b50856003896040518082805190602001908083835b60208310151561210957805182526020820191506020810190506020830392506120e4565b6001836020036101000a0380198251168184511680821785525050505050509050019150509081526020016040518091039020600101908051906020019061215292919061506c565b50846003896040518082805190602001908083835b60208310151561218c5780518252602082019150602081019050602083039250612167565b6001836020036101000a038019825116818451168082178552505050505050905001915050908152602001604051809103902060020190805190602001906121d592919061506c565b50836003896040518082805190602001908083835b60208310151561220f57805182526020820191506020810190506020830392506121ea565b6001836020036101000a0380198251168184511680821785525050505050509050019150509081526020016040518091039020600301908051906020019061225892919061506c565b50826003896040518082805190602001908083835b602083101515612292578051825260208201915060208101905060208303925061226d565b6001836020036101000a038019825116818451168082178552505050505050905001915050908152602001604051809103902060040190805190602001906122db92919061506c565b50816003896040518082805190602001908083835b60208310151561231557805182526020820191506020810190506020830392506122f0565b6001836020036101000a0380198251168184511680821785525050505050509050019150509081526020016040518091039020600501908051906020019061235e92919061506c565b50806003896040518082805190602001908083835b6020831015156123985780518252602082019150602081019050602083039250612373565b6001836020036101000a038019825116818451168082178552505050505050905001915050908152602001604051809103902060060190805190602001906123e192919061506c565b505050505050505050565b60608060608060608060606004886040518082805190602001908083835b60208310151561242f578051825260208201915060208101905060208303925061240a565b6001836020036101000a03801982511681845116808217855250505050505090500191505090815260200160405180910390206000018054600181600116156101000203166002900480601f0160208091040260200160405190810160405280929190818152602001828054600181600116156101000203166002900480156124f95780601f106124ce576101008083540402835291602001916124f9565b820191906000526020600020905b8154815290600101906020018083116124dc57829003601f168201915b505050505096506004886040518082805190602001908083835b6020831015156125385780518252602082019150602081019050602083039250612513565b6001836020036101000a03801982511681845116808217855250505050505090500191505090815260200160405180910390206001018054600181600116156101000203166002900480601f0160208091040260200160405190810160405280929190818152602001828054600181600116156101000203166002900480156126025780601f106125d757610100808354040283529160200191612602565b820191906000526020600020905b8154815290600101906020018083116125e557829003601f168201915b505050505095506004886040518082805190602001908083835b602083101515612641578051825260208201915060208101905060208303925061261c565b6001836020036101000a03801982511681845116808217855250505050505090500191505090815260200160405180910390206002018054600181600116156101000203166002900480601f01602080910402602001604051908101604052809291908181526020018280546001816001161561010002031660029004801561270b5780601f106126e05761010080835404028352916020019161270b565b820191906000526020600020905b8154815290600101906020018083116126ee57829003601f168201915b505050505094506004886040518082805190602001908083835b60208310151561274a5780518252602082019150602081019050602083039250612725565b6001836020036101000a03801982511681845116808217855250505050505090500191505090815260200160405180910390206003018054600181600116156101000203166002900480601f0160208091040260200160405190810160405280929190818152602001828054600181600116156101000203166002900480156128145780601f106127e957610100808354040283529160200191612814565b820191906000526020600020905b8154815290600101906020018083116127f757829003601f168201915b505050505093506004886040518082805190602001908083835b602083101515612853578051825260208201915060208101905060208303925061282e565b6001836020036101000a03801982511681845116808217855250505050505090500191505090815260200160405180910390206004018054600181600116156101000203166002900480601f01602080910402602001604051908101604052809291908181526020018280546001816001161561010002031660029004801561291d5780601f106128f25761010080835404028352916020019161291d565b820191906000526020600020905b81548152906001019060200180831161290057829003601f168201915b505050505092506004886040518082805190602001908083835b60208310151561295c5780518252602082019150602081019050602083039250612937565b6001836020036101000a03801982511681845116808217855250505050505090500191505090815260200160405180910390206005018054600181600116156101000203166002900480601f016020809104026020016040519081016040528092919081815260200182805460018160011615610100020316600290048015612a265780601f106129fb57610100808354040283529160200191612a26565b820191906000526020600020905b815481529060010190602001808311612a0957829003601f168201915b505050505091506004886040518082805190602001908083835b602083101515612a655780518252602082019150602081019050602083039250612a40565b6001836020036101000a03801982511681845116808217855250505050505090500191505090815260200160405180910390206006018054600181600116156101000203166002900480601f016020809104026020016040519081016040528092919081815260200182805460018160011615610100020316600290048015612b2f5780601f10612b0457610100808354040283529160200191612b2f565b820191906000526020600020905b815481529060010190602001808311612b1257829003601f168201915b50505050509050868686868686869650965096509650965096509650919395979092949650565b866004896040518082805190602001908083835b602083101515612b8f5780518252602082019150602081019050602083039250612b6a565b6001836020036101000a03801982511681845116808217855250505050505090500191505090815260200160405180910390206000019080519060200190612bd892919061506c565b50856004896040518082805190602001908083835b602083101515612c125780518252602082019150602081019050602083039250612bed565b6001836020036101000a03801982511681845116808217855250505050505090500191505090815260200160405180910390206001019080519060200190612c5b92919061506c565b50846004896040518082805190602001908083835b602083101515612c955780518252602082019150602081019050602083039250612c70565b6001836020036101000a03801982511681845116808217855250505050505090500191505090815260200160405180910390206002019080519060200190612cde92919061506c565b50836004896040518082805190602001908083835b602083101515612d185780518252602082019150602081019050602083039250612cf3565b6001836020036101000a03801982511681845116808217855250505050505090500191505090815260200160405180910390206003019080519060200190612d6192919061506c565b50826004896040518082805190602001908083835b602083101515612d9b5780518252602082019150602081019050602083039250612d76565b6001836020036101000a03801982511681845116808217855250505050505090500191505090815260200160405180910390206004019080519060200190612de492919061506c565b50816004896040518082805190602001908083835b602083101515612e1e5780518252602082019150602081019050602083039250612df9565b6001836020036101000a03801982511681845116808217855250505050505090500191505090815260200160405180910390206005019080519060200190612e6792919061506c565b50806004896040518082805190602001908083835b602083101515612ea15780518252602082019150602081019050602083039250612e7c565b6001836020036101000a03801982511681845116808217855250505050505090500191505090815260200160405180910390206006019080519060200190612eea92919061506c565b505050505050505050565b60608060608060608060606003886040518082805190602001908083835b602083101515612f385780518252602082019150602081019050602083039250612f13565b6001836020036101000a03801982511681845116808217855250505050505090500191505090815260200160405180910390206000018054600181600116156101000203166002900480601f0160208091040260200160405190810160405280929190818152602001828054600181600116156101000203166002900480156130025780601f10612fd757610100808354040283529160200191613002565b820191906000526020600020905b815481529060010190602001808311612fe557829003601f168201915b505050505096506003886040518082805190602001908083835b602083101515613041578051825260208201915060208101905060208303925061301c565b6001836020036101000a03801982511681845116808217855250505050505090500191505090815260200160405180910390206001018054600181600116156101000203166002900480601f01602080910402602001604051908101604052809291908181526020018280546001816001161561010002031660029004801561310b5780601f106130e05761010080835404028352916020019161310b565b820191906000526020600020905b8154815290600101906020018083116130ee57829003601f168201915b505050505095506003886040518082805190602001908083835b60208310151561314a5780518252602082019150602081019050602083039250613125565b6001836020036101000a03801982511681845116808217855250505050505090500191505090815260200160405180910390206002018054600181600116156101000203166002900480601f0160208091040260200160405190810160405280929190818152602001828054600181600116156101000203166002900480156132145780601f106131e957610100808354040283529160200191613214565b820191906000526020600020905b8154815290600101906020018083116131f757829003601f168201915b505050505094506003886040518082805190602001908083835b602083101515613253578051825260208201915060208101905060208303925061322e565b6001836020036101000a03801982511681845116808217855250505050505090500191505090815260200160405180910390206003018054600181600116156101000203166002900480601f01602080910402602001604051908101604052809291908181526020018280546001816001161561010002031660029004801561331d5780601f106132f25761010080835404028352916020019161331d565b820191906000526020600020905b81548152906001019060200180831161330057829003601f168201915b505050505093506003886040518082805190602001908083835b60208310151561335c5780518252602082019150602081019050602083039250613337565b6001836020036101000a03801982511681845116808217855250505050505090500191505090815260200160405180910390206004018054600181600116156101000203166002900480601f0160208091040260200160405190810160405280929190818152602001828054600181600116156101000203166002900480156134265780601f106133fb57610100808354040283529160200191613426565b820191906000526020600020905b81548152906001019060200180831161340957829003601f168201915b505050505092506003886040518082805190602001908083835b6020831015156134655780518252602082019150602081019050602083039250613440565b6001836020036101000a03801982511681845116808217855250505050505090500191505090815260200160405180910390206005018054600181600116156101000203166002900480601f01602080910402602001604051908101604052809291908181526020018280546001816001161561010002031660029004801561352f5780601f106135045761010080835404028352916020019161352f565b820191906000526020600020905b81548152906001019060200180831161351257829003601f168201915b505050505091506003886040518082805190602001908083835b60208310151561356e5780518252602082019150602081019050602083039250613549565b6001836020036101000a03801982511681845116808217855250505050505090500191505090815260200160405180910390206006018054600181600116156101000203166002900480601f0160208091040260200160405190810160405280929190818152602001828054600181600116156101000203166002900480156136385780601f1061360d57610100808354040283529160200191613638565b820191906000526020600020905b81548152906001019060200180831161361b57829003601f168201915b50505050509050868686868686869650965096509650965096509650919395979092949650565b60608060608060608060008060018a6040518082805190602001908083835b6020831015156136a3578051825260208201915060208101905060208303925061367e565b6001836020036101000a0380198251168184511680821785525050505050509050019150509081526020016040518091039020805490509150600090505b81811015613eb95760018a6040518082805190602001908083835b60208310151561372157805182526020820191506020810190506020830392506136fc565b6001836020036101000a03801982511681845116808217855250505050505090500191505090815260200160405180910390208181548110151561376157fe5b90600052602060002090600602016000018054600181600116156101000203166002900480601f0160208091040260200160405190810160405280929190818152602001828054600181600116156101000203166002900480156138065780601f106137db57610100808354040283529160200191613806565b820191906000526020600020905b8154815290600101906020018083116137e957829003601f168201915b50505050509750876040518082805190602001908083835b602083101515613843578051825260208201915060208101905060208303925061381e565b6001836020036101000a038019825116818451168082178552505050505050905001915050604051809103902060001916896040518082805190602001908083835b6020831015156138aa5780518252602082019150602081019050602083039250613885565b6001836020036101000a0380198251168184511680821785525050505050509050019150506040518091039020600019161415613eac5760018a6040518082805190602001908083835b60208310151561391957805182526020820191506020810190506020830392506138f4565b6001836020036101000a03801982511681845116808217855250505050505090500191505090815260200160405180910390208181548110151561395957fe5b90600052602060002090600602016001018054600181600116156101000203166002900480601f0160208091040260200160405190810160405280929190818152602001828054600181600116156101000203166002900480156139fe5780601f106139d3576101008083540402835291602001916139fe565b820191906000526020600020905b8154815290600101906020018083116139e157829003601f168201915b5050505050965060018a6040518082805190602001908083835b602083101515613a3d5780518252602082019150602081019050602083039250613a18565b6001836020036101000a038019825116818451168082178552505050505050905001915050908152602001604051809103902081815481101515613a7d57fe5b90600052602060002090600602016002018054600181600116156101000203166002900480601f016020809104026020016040519081016040528092919081815260200182805460018160011615610100020316600290048015613b225780601f10613af757610100808354040283529160200191613b22565b820191906000526020600020905b815481529060010190602001808311613b0557829003601f168201915b5050505050955060018a6040518082805190602001908083835b602083101515613b615780518252602082019150602081019050602083039250613b3c565b6001836020036101000a038019825116818451168082178552505050505050905001915050908152602001604051809103902081815481101515613ba157fe5b90600052602060002090600602016005018054600181600116156101000203166002900480601f016020809104026020016040519081016040528092919081815260200182805460018160011615610100020316600290048015613c465780601f10613c1b57610100808354040283529160200191613c46565b820191906000526020600020905b815481529060010190602001808311613c2957829003601f168201915b5050505050925060018a6040518082805190602001908083835b602083101515613c855780518252602082019150602081019050602083039250613c60565b6001836020036101000a038019825116818451168082178552505050505050905001915050908152602001604051809103902081815481101515613cc557fe5b90600052602060002090600602016003018054600181600116156101000203166002900480601f016020809104026020016040519081016040528092919081815260200182805460018160011615610100020316600290048015613d6a5780601f10613d3f57610100808354040283529160200191613d6a565b820191906000526020600020905b815481529060010190602001808311613d4d57829003601f168201915b5050505050945060018a6040518082805190602001908083835b602083101515613da95780518252602082019150602081019050602083039250613d84565b6001836020036101000a038019825116818451168082178552505050505050905001915050908152602001604051809103902081815481101515613de957fe5b90600052602060002090600602016004018054600181600116156101000203166002900480601f016020809104026020016040519081016040528092919081815260200182805460018160011615610100020316600290048015613e8e5780601f10613e6357610100808354040283529160200191613e8e565b820191906000526020600020905b815481529060010190602001808311613e7157829003601f168201915b5050505050935087878787878797509750975097509750975061400a565b80806001019150506136e1565b6040805190810160405280600481526020017f6e756c6c000000000000000000000000000000000000000000000000000000008152506040805190810160405280600481526020017f6e756c6c000000000000000000000000000000000000000000000000000000008152506040805190810160405280600481526020017f6e756c6c000000000000000000000000000000000000000000000000000000008152506040805190810160405280600481526020017f6e756c6c000000000000000000000000000000000000000000000000000000008152506040805190810160405280600481526020017f6e756c6c000000000000000000000000000000000000000000000000000000008152506040805190810160405280600481526020017f6e756c6c000000000000000000000000000000000000000000000000000000008152509750975097509750975097505b50509295509295509295565b60608060608060608060606005886040518082805190602001908083835b6020831015156140595780518252602082019150602081019050602083039250614034565b6001836020036101000a03801982511681845116808217855250505050505090500191505090815260200160405180910390206000018054600181600116156101000203166002900480601f0160208091040260200160405190810160405280929190818152602001828054600181600116156101000203166002900480156141235780601f106140f857610100808354040283529160200191614123565b820191906000526020600020905b81548152906001019060200180831161410657829003601f168201915b505050505096506005886040518082805190602001908083835b602083101515614162578051825260208201915060208101905060208303925061413d565b6001836020036101000a03801982511681845116808217855250505050505090500191505090815260200160405180910390206001018054600181600116156101000203166002900480601f01602080910402602001604051908101604052809291908181526020018280546001816001161561010002031660029004801561422c5780601f106142015761010080835404028352916020019161422c565b820191906000526020600020905b81548152906001019060200180831161420f57829003601f168201915b505050505095506005886040518082805190602001908083835b60208310151561426b5780518252602082019150602081019050602083039250614246565b6001836020036101000a03801982511681845116808217855250505050505090500191505090815260200160405180910390206002018054600181600116156101000203166002900480601f0160208091040260200160405190810160405280929190818152602001828054600181600116156101000203166002900480156143355780601f1061430a57610100808354040283529160200191614335565b820191906000526020600020905b81548152906001019060200180831161431857829003601f168201915b505050505094506005886040518082805190602001908083835b602083101515614374578051825260208201915060208101905060208303925061434f565b6001836020036101000a03801982511681845116808217855250505050505090500191505090815260200160405180910390206003018054600181600116156101000203166002900480601f01602080910402602001604051908101604052809291908181526020018280546001816001161561010002031660029004801561443e5780601f106144135761010080835404028352916020019161443e565b820191906000526020600020905b81548152906001019060200180831161442157829003601f168201915b505050505093506005886040518082805190602001908083835b60208310151561447d5780518252602082019150602081019050602083039250614458565b6001836020036101000a03801982511681845116808217855250505050505090500191505090815260200160405180910390206004018054600181600116156101000203166002900480601f0160208091040260200160405190810160405280929190818152602001828054600181600116156101000203166002900480156145475780601f1061451c57610100808354040283529160200191614547565b820191906000526020600020905b81548152906001019060200180831161452a57829003601f168201915b505050505092506005886040518082805190602001908083835b6020831015156145865780518252602082019150602081019050602083039250614561565b6001836020036101000a03801982511681845116808217855250505050505090500191505090815260200160405180910390206007018054600181600116156101000203166002900480601f0160208091040260200160405190810160405280929190818152602001828054600181600116156101000203166002900480156146505780601f1061462557610100808354040283529160200191614650565b820191906000526020600020905b81548152906001019060200180831161463357829003601f168201915b505050505091506005886040518082805190602001908083835b60208310151561468f578051825260208201915060208101905060208303925061466a565b6001836020036101000a03801982511681845116808217855250505050505090500191505090815260200160405180910390206008018054600181600116156101000203166002900480601f0160208091040260200160405190810160405280929190818152602001828054600181600116156101000203166002900480156147595780601f1061472e57610100808354040283529160200191614759565b820191906000526020600020905b81548152906001019060200180831161473c57829003601f168201915b50505050509050868686868686869650965096509650965096509650919395979092949650565b866005896040518082805190602001908083835b6020831015156147b95780518252602082019150602081019050602083039250614794565b6001836020036101000a0380198251168184511680821785525050505050509050019150509081526020016040518091039020600001908051906020019061480292919061506c565b50856005896040518082805190602001908083835b60208310151561483c5780518252602082019150602081019050602083039250614817565b6001836020036101000a0380198251168184511680821785525050505050509050019150509081526020016040518091039020600101908051906020019061488592919061506c565b50846005896040518082805190602001908083835b6020831015156148bf578051825260208201915060208101905060208303925061489a565b6001836020036101000a0380198251168184511680821785525050505050509050019150509081526020016040518091039020600201908051906020019061490892919061506c565b50836005896040518082805190602001908083835b602083101515614942578051825260208201915060208101905060208303925061491d565b6001836020036101000a0380198251168184511680821785525050505050509050019150509081526020016040518091039020600301908051906020019061498b92919061506c565b50826005896040518082805190602001908083835b6020831015156149c557805182526020820191506020810190506020830392506149a0565b6001836020036101000a03801982511681845116808217855250505050505090500191505090815260200160405180910390206004019080519060200190614a0e92919061506c565b50816005896040518082805190602001908083835b602083101515614a485780518252602082019150602081019050602083039250614a23565b6001836020036101000a03801982511681845116808217855250505050505090500191505090815260200160405180910390206007019080519060200190614a9192919061506c565b50806005896040518082805190602001908083835b602083101515614acb5780518252602082019150602081019050602083039250614aa6565b6001836020036101000a03801982511681845116808217855250505050505090500191505090815260200160405180910390206008019080519060200190614b1492919061506c565b505050505050505050565b60608060608060606000866040518082805190602001908083835b602083101515614b5f5780518252602082019150602081019050602083039250614b3a565b6001836020036101000a03801982511681845116808217855250505050505090500191505090815260200160405180910390206000018054600181600116156101000203166002900480601f016020809104026020016040519081016040528092919081815260200182805460018160011615610100020316600290048015614c295780601f10614bfe57610100808354040283529160200191614c29565b820191906000526020600020905b815481529060010190602001808311614c0c57829003601f168201915b505050505094506000866040518082805190602001908083835b602083101515614c685780518252602082019150602081019050602083039250614c43565b6001836020036101000a03801982511681845116808217855250505050505090500191505090815260200160405180910390206001018054600181600116156101000203166002900480601f016020809104026020016040519081016040528092919081815260200182805460018160011615610100020316600290048015614d325780601f10614d0757610100808354040283529160200191614d32565b820191906000526020600020905b815481529060010190602001808311614d1557829003601f168201915b505050505093506000866040518082805190602001908083835b602083101515614d715780518252602082019150602081019050602083039250614d4c565b6001836020036101000a03801982511681845116808217855250505050505090500191505090815260200160405180910390206002018054600181600116156101000203166002900480601f016020809104026020016040519081016040528092919081815260200182805460018160011615610100020316600290048015614e3b5780601f10614e1057610100808354040283529160200191614e3b565b820191906000526020600020905b815481529060010190602001808311614e1e57829003601f168201915b505050505092506000866040518082805190602001908083835b602083101515614e7a5780518252602082019150602081019050602083039250614e55565b6001836020036101000a03801982511681845116808217855250505050505090500191505090815260200160405180910390206003018054600181600116156101000203166002900480601f016020809104026020016040519081016040528092919081815260200182805460018160011615610100020316600290048015614f445780601f10614f1957610100808354040283529160200191614f44565b820191906000526020600020905b815481529060010190602001808311614f2757829003601f168201915b505050505091506000866040518082805190602001908083835b602083101515614f835780518252602082019150602081019050602083039250614f5e565b6001836020036101000a03801982511681845116808217855250505050505090500191505090815260200160405180910390206004018054600181600116156101000203166002900480601f01602080910402602001604051908101604052809291908181526020018280546001816001161561010002031660029004801561504d5780601f106150225761010080835404028352916020019161504d565b820191906000526020600020905b81548152906001019060200180831161503057829003601f168201915b5050505050905084848484849450945094509450945091939590929450565b828054600181600116156101000203166002900490600052602060002090601f016020900481019282601f106150ad57805160ff19168380011785556150db565b828001600101855582156150db579182015b828111156150da5782518255916020019190600101906150bf565b5b5090506150e89190615173565b5090565b828054600181600116156101000203166002900490600052602060002090601f016020900481019282601f106151255780548555615162565b8280016001018555821561516257600052602060002091601f016020900482015b82811115615161578254825591600101919060010190615146565b5b50905061516f9190615173565b5090565b61519591905b80821115615191576000816000905550600101615179565b5090565b905600a165627a7a723058209aca678edb50c87c28c7313aafe4aeef4fea8e566444b76e2da0af1c9f4e7e050029",
  "source": "pragma solidity ^0.4.17;\r\ncontract Certify\r\n{\r\n\r\nstruct applicantEducation\r\n{\r\n  //Certificates by CA to each the educational qualification\r\n  string X;\r\n  string XII;\r\n  string graduation;\r\n  string postGraduation;\r\n  string phd;\r\n  \r\n}\r\n\r\nstruct applicantEmployement\r\n{\r\n  \r\n  string previousEmployerId;\r\n  string fromDate;\r\n  string toDate;\r\n  string ctc;\r\n  string tenureInLastRole;\r\n  string certificate;//by CA\r\n}\r\n\r\nstruct applicantCertification\r\n{\r\n  string certificateName;\r\n  string cerificateCode;\r\n  string certificationEntity;\r\n  string certifiedOn;\r\n}\r\n\r\nstruct applicantTenth\r\n{\r\n  string registrationNumber;\r\n  string schoolName;\r\n  string batch;\r\n  string cgpa;\r\n  string region;\r\n  string board;\r\n  string status;\r\n}\r\n\r\nstruct applicantTwelveth\r\n{\r\n  string registrationNumber;\r\n  string schoolName;\r\n  string batch;\r\n  string cgpa;\r\n  string region;\r\n  string board;\r\n  string status;\r\n}\r\n\r\n\r\nstruct applicantDegree\r\n{\r\n  string registrationNumber;\r\n  string college;\r\n  string university;\r\n  string batch;\r\n  string cgpa;\r\n  string region;\r\n  string specialisation;\r\n  string status;\r\n  string degree;\r\n}\r\n\r\nmapping(string=>applicantEducation) applicantEducationDetails;\r\nmapping(string=>applicantEmployement[]) applicantEmployementDetails;\r\nmapping(string=>applicantCertification[]) applicantCertificationDetails;\r\n\r\nmapping(string=>applicantTenth) applicantTenthDetails;\r\nmapping(string=>applicantTwelveth) applicantTwelvethDetails;\r\nmapping(string=>applicantDegree) applicantDegreeDetails;\r\n\r\n\r\nfunction setTethDetails(string candidateId,string _registrationNumber,\r\n  string _schoolName,\r\n  string _batch,\r\n  string _cgpa,\r\n  string _region,\r\n  string _board,\r\n  string _status) public\r\n  {\r\napplicantTenthDetails[candidateId].registrationNumber=_registrationNumber;\r\napplicantTenthDetails[candidateId].schoolName=_schoolName;\r\napplicantTenthDetails[candidateId].batch=_batch;\r\napplicantTenthDetails[candidateId].cgpa=_cgpa;\r\napplicantTenthDetails[candidateId].region=_region;\r\napplicantTenthDetails[candidateId].board=_board;\r\napplicantTenthDetails[candidateId].status=_status;\r\n\r\n  }\r\n\r\n  function getTethDetails(string candidateId)  public returns(string _registrationNumber,\r\n  string _schoolName,\r\n  string _batch,\r\n  string _cgpa,\r\n  string _region,\r\n  string _board,\r\n  string _status) \r\n  {\r\n\r\n_registrationNumber=applicantTenthDetails[candidateId].registrationNumber;\r\n_schoolName=applicantTenthDetails[candidateId].schoolName;\r\n_batch=applicantTenthDetails[candidateId].batch;\r\n_cgpa=applicantTenthDetails[candidateId].cgpa;\r\n_region=applicantTenthDetails[candidateId].region;\r\n_board=applicantTenthDetails[candidateId].board;\r\n_status=applicantTenthDetails[candidateId].status;\r\n\r\nreturn(\r\n   _registrationNumber,\r\n  _schoolName,\r\n  _batch,\r\n  _cgpa,\r\n  _region,\r\n  _board,\r\n  _status);\r\n\r\n  }\r\n \r\nfunction setTwelvethDetails(string candidateId,string _registrationNumber,\r\n  string _schoolName,\r\n  string _batch,\r\n  string _cgpa,\r\n  string _region,\r\n  string _board,\r\n  string _status) public\r\n  {\r\napplicantTwelvethDetails[candidateId].registrationNumber=_registrationNumber;\r\napplicantTwelvethDetails[candidateId].schoolName=_schoolName;\r\napplicantTwelvethDetails[candidateId].batch=_batch;\r\napplicantTwelvethDetails[candidateId].cgpa=_cgpa;\r\napplicantTwelvethDetails[candidateId].region=_region;\r\napplicantTwelvethDetails[candidateId].board=_board;\r\napplicantTwelvethDetails[candidateId].status=_status;\r\n\r\n  }\r\n\r\n\r\n function getTwelvethDetails(string candidateId)  public returns(string _registrationNumber,\r\n  string _schoolName,\r\n  string _batch,\r\n  string _cgpa,\r\n  string _region,\r\n  string _board,\r\n  string _status) \r\n  {\r\n_registrationNumber=applicantTwelvethDetails[candidateId].registrationNumber;\r\n_schoolName=applicantTwelvethDetails[candidateId].schoolName;\r\n_batch=applicantTwelvethDetails[candidateId].batch;\r\n_cgpa=applicantTwelvethDetails[candidateId].cgpa;\r\n_region=applicantTwelvethDetails[candidateId].region;\r\n_board=applicantTwelvethDetails[candidateId].board;\r\n_status=applicantTwelvethDetails[candidateId].status;\r\n\r\nreturn(_registrationNumber,\r\n  _schoolName,\r\n  _batch,\r\n  _cgpa,\r\n  _region,\r\n  _board,\r\n  _status);\r\n\r\n  }\r\n\r\n\r\n\r\n\r\n  \r\nfunction setDegreeDetails(string candidateId,  string _registrationNumber,\r\n  string _college,\r\n  string _university,\r\n  string _batch,\r\n  string _cgpa,\r\n  string _status,\r\n  string _degree) public\r\n  {\r\napplicantDegreeDetails[candidateId].registrationNumber=_registrationNumber;\r\napplicantDegreeDetails[candidateId].college=_college;\r\napplicantDegreeDetails[candidateId].university=_university;\r\napplicantDegreeDetails[candidateId].batch=_batch;\r\napplicantDegreeDetails[candidateId].cgpa=_cgpa;\r\napplicantDegreeDetails[candidateId].status=_status;\r\napplicantDegreeDetails[candidateId].degree=_degree;\r\n\r\n  }\r\n\r\n  function getDegreeDetails(string candidateId)  public returns(string _registrationNumber,\r\n  string _college,\r\n  string _university,\r\n  string _batch,\r\n  string _cgpa,\r\n  string _status,\r\n  string _degree) \r\n  {\r\n\r\n_registrationNumber=applicantDegreeDetails[candidateId].registrationNumber;\r\n_college=applicantDegreeDetails[candidateId].college;\r\n_university=applicantDegreeDetails[candidateId].university;\r\n_batch=applicantDegreeDetails[candidateId].batch;\r\n_cgpa=applicantDegreeDetails[candidateId].cgpa;\r\n_status=applicantDegreeDetails[candidateId].status;\r\n_degree=applicantDegreeDetails[candidateId].degree;\r\n\r\nreturn(\r\n   _registrationNumber,\r\n  _college,\r\n  _university,\r\n  _batch,\r\n  _cgpa,\r\n  _status,\r\n  _degree\r\n  );\r\n\r\n  }\r\n\r\n\r\n\r\n//older code starts below-check if it could be reused\r\n\r\nfunction setEducationalDetails(string applicantId,string _X,string _XII,string _graduation,string _postGraduation,string _phd) public\r\n{\r\n applicantEducationDetails[applicantId].X=_X;\r\n  applicantEducationDetails[applicantId].XII=_XII;\r\n applicantEducationDetails[applicantId].graduation =_graduation;\r\n applicantEducationDetails[applicantId].postGraduation = _postGraduation;\r\n  applicantEducationDetails[applicantId].phd = _phd;\r\n}\r\n\r\nfunction getEducationalDetails(string applicantId) public returns(\r\n  string _X,\r\n  string _XII,\r\n  string _graduation,\r\n  string _postGraduation,\r\n  string _phd)\r\n{\r\n  _X=applicantEducationDetails[applicantId].X;\r\n  _XII=applicantEducationDetails[applicantId].XII;\r\n  _graduation=applicantEducationDetails[applicantId].graduation;\r\n  _postGraduation=applicantEducationDetails[applicantId].postGraduation;\r\n  _phd=applicantEducationDetails[applicantId].phd;\r\n\r\n  return ( _X, _XII,_graduation,_postGraduation,_phd);\r\n\r\n}\r\n\r\nfunction setApplicantEmployment(string applicantId,string _previousEmployer,string _fromDate,string _toDate,string _ctc, string _tenure,string _certificate) public\r\n{\r\n\r\n    applicantEmployement appEd;\r\n    appEd.previousEmployerId=_previousEmployer;\r\n    appEd.fromDate=_fromDate;\r\n    appEd.toDate =_toDate;\r\n    appEd.certificate=_certificate;\r\n    appEd.ctc=_ctc;\r\n    appEd.tenureInLastRole=_tenure;\r\n\r\n\r\napplicantEmployementDetails[applicantId].push(appEd);\r\n}\r\n\r\n\r\nfunction getApplicantEmplyement(string applicantId,string Employeeid) public returns(string _previousEmployer,string _fromDate,string _toDate,string _ctc,string _tenure,string _certificate)\r\n{\r\n\r\n    uint length=applicantEmployementDetails[applicantId].length;\r\n\r\n     for(uint i=0;i < length;i++)\r\n  {\r\n _previousEmployer=applicantEmployementDetails[applicantId][i].previousEmployerId;\r\n\r\nif(keccak256(Employeeid) ==keccak256( _previousEmployer))\r\n{\r\n_fromDate=applicantEmployementDetails[applicantId][i].fromDate;\r\n_toDate=applicantEmployementDetails[applicantId][i].toDate;\r\n_certificate=applicantEmployementDetails[applicantId][i].certificate;\r\n_ctc=applicantEmployementDetails[applicantId][i].ctc;\r\n_tenure=applicantEmployementDetails[applicantId][i].tenureInLastRole;\r\n\r\n\r\n\r\nreturn(_previousEmployer, _fromDate, _toDate,_ctc,_tenure, _certificate);\r\n}\r\n  }\r\nreturn(\"null\", \"null\", \"null\", \"null\",\"null\",\"null\");\r\n\r\n}\r\n}\r\n",
  "sourcePath": "C:\\Users\\dibin.joseph\\Desktop\\Trial\\contracts\\Certify.sol",
  "compiler": {
    "name": "solc",
    "version": "0.4.23+commit.124ca40d.Emscripten.clang"
  },
  "schemaVersion": "2.0.0",
  "updatedAt": "2018-08-31T11:28:25.268Z"
}